S01C0000547261666669635F4C696768745F53797374656D2E737265630E
S113000065C0000080C000007EC000007CC000000D
S11300107AC0000076C100008CC1000074C00000EA
S113002072C0000070C000006EC000006CC0000010
S11300306AC0000068C0000066C0000064C0000020
S113004062C000004DC100005EC000005CC0000042
S11300505AC0000058C0000056C0000054C0000040
S113006052C0000050C000004EC000004CC0000050
S11300704AC0000048C0000046C0000044C0000060
S113008042C0000040C000003EC000003CC0000070
S11300903AC0000038C0000036C0000034C0000080
S11300A032C0000030C000002EC000002CC0000090
S11300B02AC0000028C0000026C0000024C00000A0
S11300C022C0000020C000001EC0000011241FBE7A
S11300D0CFEFD1E2DEBFCDBF12E0A0E0B2E0E0EAB4
S11300E0F3E000E00BBF02C007900D92AA30B10705
S11300F0D9F722E0AAE0B2E001C01D92AF30B20706
S1130100E1F785D04BC17CCF109280008DE08093C5
S113011081001092820081E08093890080ED8093B9
S11301208800109285001092840082E080936F0012
S113013008951092690085E080936A001DBA8FEFDC
S11301408CBB089589E082B985B908958CE082B9A1
S113015089E085B981E08BB9089581E282B989E0AB
S113016085B982E08BB9089589E082B98CE085B9BC
S113017084E08BB9089589E082B981E285B988E089
S11301808BB908958BE082B981E385B908958EE136
S113019082B989E085B9089581E382B98BE085B994
S11301A0089589E082B98EE185B9089580910D02A0
S11301B0813029F412B815B810920D02089582E125
S11301C082B985B981E080930D02089580509E4FD5
S11301D0FC018081809581BB08958FEF81B984B93A
S11301E01DB88AB980BBAEDF11BA1BB8789489E018
S11301F080930E0210920B0281E080930C02109205
S11302000A0289E090E0E2DF10920D020895E5DF32
S113021090DF7ADF80E38DBBC9E00F2EF3E0FF2E81
S1130220F02D04E011E0D2E080910A0281110AC0AD
S113023080910E0290910B028917B1F380930B0207
S1130240B5DFF2CF813081F780910E0290E0BEDFFE
S113025080910C028230B9F018F4813031F0E4CF8F
S1130260833001F1843069F1DFCF80910E02811176
S113027006C0C0930E0271DFD0930C02D5CF843038
S113028099F685DFD1CF80910E02811106C0C0930B
S11302900E026ADFF0920C02C7CF843009F0C4CF9B
S11302A07BDFC2CF80910E02811106C0C0930E0283
S11302B062DF00930C02B8CF843009F0B5CF71DF50
S11302C0B3CF80910E02811106C0C0930E023EDFAF
S11302D010930C02A9CF843009F0A6CF53DFA4CF2A
S11302E01F920F920FB60F9211248F9380910E02DA
S11302F0815080930E028F910F900FBE0F901F902C
S113030018951F920F920FB60F9211248F931DBA56
S113031010920A021BB889E080930E0210920B021D
S113032011BA80E38DBB8F910F900FBE0F901F9079
S113033018951F920F920FB60F9211240BB60F92BD
S11303402F933F934F935F936F937F938F939F93D9
S1130350AF93BF93EF93FF931DBA89E080930E028E
S113036081E080930A0210920B0280930C02EADE71
S1130370EDDE80E38DBBFF91EF91BF91AF919F9133
S11303808F917F916F915F914F913F912F910F903A
S11303900BBE0F900FBE0F901F901895F894FFCFCF
S10D03A03F065B4F666D7D077F6F1B
S9030000FC
